{
  "contractName": "ReviewContract",
  "abi": [
    {
      "inputs": [
        {
          "internalType": "uint256",
          "name": "",
          "type": "uint256"
        }
      ],
      "name": "reviews",
      "outputs": [
        {
          "internalType": "string",
          "name": "content",
          "type": "string"
        },
        {
          "internalType": "uint8",
          "name": "rating",
          "type": "uint8"
        },
        {
          "internalType": "address",
          "name": "reviewer",
          "type": "address"
        }
      ],
      "stateMutability": "view",
      "type": "function"
    },
    {
      "inputs": [
        {
          "internalType": "string",
          "name": "_content",
          "type": "string"
        },
        {
          "internalType": "uint8",
          "name": "_rating",
          "type": "uint8"
        }
      ],
      "name": "addReview",
      "outputs": [],
      "stateMutability": "nonpayable",
      "type": "function"
    },
    {
      "inputs": [],
      "name": "getReviewCount",
      "outputs": [
        {
          "internalType": "uint256",
          "name": "",
          "type": "uint256"
        }
      ],
      "stateMutability": "view",
      "type": "function"
    },
    {
      "inputs": [
        {
          "internalType": "uint256",
          "name": "index",
          "type": "uint256"
        }
      ],
      "name": "getReview",
      "outputs": [
        {
          "internalType": "string",
          "name": "",
          "type": "string"
        },
        {
          "internalType": "uint8",
          "name": "",
          "type": "uint8"
        },
        {
          "internalType": "address",
          "name": "",
          "type": "address"
        }
      ],
      "stateMutability": "view",
      "type": "function"
    }
  ],
  "bytecode": "0x608060405234801561000f575f80fd5b50610c078061001d5f395ff3fe608060405234801561000f575f80fd5b506004361061004a575f3560e01c806328c5be3c1461004e578063709dc7fb1461006a578063990581b614610088578063e83ddcea146100ba575b5f80fd5b61006860048036038101906100639190610627565b6100ec565b005b61007261021f565b60405161007f9190610699565b60405180910390f35b6100a2600480360381019061009d91906106dc565b61022a565b6040516100b1939291906107cf565b60405180910390f35b6100d460048036038101906100cf91906106dc565b6103be565b6040516100e3939291906107cf565b60405180910390f35b60018160ff1610158015610104575060058160ff1611155b610143576040517f08c379a000000000000000000000000000000000000000000000000000000000815260040161013a90610855565b60405180910390fd5b5f60405180606001604052808481526020018360ff1681526020013373ffffffffffffffffffffffffffffffffffffffff16815250908060018154018082558091505060019003905f5260205f2090600202015f909190919091505f820151815f0190816101b19190610a6d565b506020820151816001015f6101000a81548160ff021916908360ff16021790555060408201518160010160016101000a81548173ffffffffffffffffffffffffffffffffffffffff021916908373ffffffffffffffffffffffffffffffffffffffff16021790555050505050565b5f8080549050905090565b60605f805f805490508410610274576040517f08c379a000000000000000000000000000000000000000000000000000000000815260040161026b90610b86565b60405180910390fd5b5f80858154811061028857610287610ba4565b5b905f5260205f2090600202016040518060600160405290815f820180546102ae906108a0565b80601f01602080910402602001604051908101604052809291908181526020018280546102da906108a0565b80156103255780601f106102fc57610100808354040283529160200191610325565b820191905f5260205f20905b81548152906001019060200180831161030857829003601f168201915b50505050508152602001600182015f9054906101000a900460ff1660ff1660ff1681526020016001820160019054906101000a900473ffffffffffffffffffffffffffffffffffffffff1673ffffffffffffffffffffffffffffffffffffffff1673ffffffffffffffffffffffffffffffffffffffff16815250509050805f015181602001518260400151935093509350509193909250565b5f81815481106103cc575f80fd5b905f5260205f2090600202015f91509050805f0180546103eb906108a0565b80601f0160208091040260200160405190810160405280929190818152602001828054610417906108a0565b80156104625780601f1061043957610100808354040283529160200191610462565b820191905f5260205f20905b81548152906001019060200180831161044557829003601f168201915b505050505090806001015f9054906101000a900460ff16908060010160019054906101000a900473ffffffffffffffffffffffffffffffffffffffff16905083565b5f604051905090565b5f80fd5b5f80fd5b5f80fd5b5f80fd5b5f601f19601f8301169050919050565b7f4e487b71000000000000000000000000000000000000000000000000000000005f52604160045260245ffd5b610503826104bd565b810181811067ffffffffffffffff82111715610522576105216104cd565b5b80604052505050565b5f6105346104a4565b905061054082826104fa565b919050565b5f67ffffffffffffffff82111561055f5761055e6104cd565b5b610568826104bd565b9050602081019050919050565b828183375f83830152505050565b5f61059561059084610545565b61052b565b9050828152602081018484840111156105b1576105b06104b9565b5b6105bc848285610575565b509392505050565b5f82601f8301126105d8576105d76104b5565b5b81356105e8848260208601610583565b91505092915050565b5f60ff82169050919050565b610606816105f1565b8114610610575f80fd5b50565b5f81359050610621816105fd565b92915050565b5f806040838503121561063d5761063c6104ad565b5b5f83013567ffffffffffffffff81111561065a576106596104b1565b5b610666858286016105c4565b925050602061067785828601610613565b9150509250929050565b5f819050919050565b61069381610681565b82525050565b5f6020820190506106ac5f83018461068a565b92915050565b6106bb81610681565b81146106c5575f80fd5b50565b5f813590506106d6816106b2565b92915050565b5f602082840312156106f1576106f06104ad565b5b5f6106fe848285016106c8565b91505092915050565b5f81519050919050565b5f82825260208201905092915050565b5f5b8381101561073e578082015181840152602081019050610723565b5f8484015250505050565b5f61075382610707565b61075d8185610711565b935061076d818560208601610721565b610776816104bd565b840191505092915050565b61078a816105f1565b82525050565b5f73ffffffffffffffffffffffffffffffffffffffff82169050919050565b5f6107b982610790565b9050919050565b6107c9816107af565b82525050565b5f6060820190508181035f8301526107e78186610749565b90506107f66020830185610781565b61080360408301846107c0565b949350505050565b7f526174696e67206d757374206265206265747765656e203120616e64203500005f82015250565b5f61083f601e83610711565b915061084a8261080b565b602082019050919050565b5f6020820190508181035f83015261086c81610833565b9050919050565b7f4e487b71000000000000000000000000000000000000000000000000000000005f52602260045260245ffd5b5f60028204905060018216806108b757607f821691505b6020821081036108ca576108c9610873565b5b50919050565b5f819050815f5260205f209050919050565b5f6020601f8301049050919050565b5f82821b905092915050565b5f6008830261092c7fffffffffffffffffffffffffffffffffffffffffffffffffffffffffffffffff826108f1565b61093686836108f1565b95508019841693508086168417925050509392505050565b5f819050919050565b5f61097161096c61096784610681565b61094e565b610681565b9050919050565b5f819050919050565b61098a83610957565b61099e61099682610978565b8484546108fd565b825550505050565b5f90565b6109b26109a6565b6109bd818484610981565b505050565b5b818110156109e0576109d55f826109aa565b6001810190506109c3565b5050565b601f821115610a25576109f6816108d0565b6109ff846108e2565b81016020851015610a0e578190505b610a22610a1a856108e2565b8301826109c2565b50505b505050565b5f82821c905092915050565b5f610a455f1984600802610a2a565b1980831691505092915050565b5f610a5d8383610a36565b9150826002028217905092915050565b610a7682610707565b67ffffffffffffffff811115610a8f57610a8e6104cd565b5b610a9982546108a0565b610aa48282856109e4565b5f60209050601f831160018114610ad5575f8415610ac3578287015190505b610acd8582610a52565b865550610b34565b601f198416610ae3866108d0565b5f5b82811015610b0a57848901518255600182019150602085019450602081019050610ae5565b86831015610b275784890151610b23601f891682610a36565b8355505b6001600288020188555050505b505050505050565b7f496e76616c696420696e646578000000000000000000000000000000000000005f82015250565b5f610b70600d83610711565b9150610b7b82610b3c565b602082019050919050565b5f6020820190508181035f830152610b9d81610b64565b9050919050565b7f4e487b71000000000000000000000000000000000000000000000000000000005f52603260045260245ffdfea26469706673582212204ca57e8f7a03cc730c7b60eee575e52d12aee8bb92cd4f259d47e7e136ac1b3464736f6c63430008150033",
  "immutableReferences": {},
  "source": "// SPDX-License-Identifier: MIT\r\npragma solidity ^0.8.0;\r\n\r\ncontract ReviewContract {\r\n    struct Review {\r\n        string content;\r\n        uint8 rating;\r\n        address reviewer;\r\n    }\r\n\r\n    Review[] public reviews;\r\n\r\n    function addReview(string memory _content, uint8 _rating) public {\r\n        require(_rating >= 1 && _rating <= 5, \"Rating must be between 1 and 5\");\r\n        reviews.push(Review(_content, _rating, msg.sender));\r\n    }\r\n\r\n    function getReviewCount() public view returns (uint) {\r\n        return reviews.length;\r\n    }\r\n\r\n    function getReview(uint index) public view returns (string memory, uint8, address) {\r\n        require(index < reviews.length, \"Invalid index\");\r\n        Review memory r = reviews[index];\r\n        return (r.content, r.rating, r.reviewer);\r\n    }\r\n}\r\n",
  "sourcePath": "C:\\Users\\itska\\AndroidStudioProjects\\TrustChain\\trustchain-blockchain\\contracts\\ReviewContract.sol",
  "compiler": {
    "name": "solc",
    "version": "0.8.21+commit.d9974bed.Emscripten.clang"
  },
  "schemaVersion": "3.4.16",
  "updatedAt": "2025-04-12T16:28:50.306Z",
  "devdoc": {
    "kind": "dev",
    "methods": {},
    "version": 1
  },
  "userdoc": {
    "kind": "user",
    "methods": {},
    "version": 1
  }
}